:060000000A128A11122809
:10000800FE00030E83120313AB000408AC000A08B9
:10001800AD007F08AE000A128A1119280A128A1147
:10002800152883010A128A11162B8B1C8F290B089D
:100038008B10891483160313E001E1016108803AEB
:10004800FF0080307F02031D2B280F306002031849
:100058004D2883160313600883120313A500250790
:10006800C23E840083138001840A80010130831614
:100078000313E0070318E10A0030E1076108803A3A
:10008800FF0080307F02031D4B280F306002031CE5
:100098002D2883160313C001C101E201E301E60123
:1000A800E701BE01BF01E601E7016708803AFF00EA
:1000B80080307F02031D62280F30660203188428EF
:1000C80083160313660883120313A5002507C23E8F
:1000D800840083138001840A80010130831603138E
:1000E800E6070318E70A0030E7076708803AFF00C9
:1000F80080307F02031D82280F306602031C6428AB
:1001080083120313861C8E28013083160313C20042
:100118000030C3008312061D97280130831603138D
:10012800C4000030C5008312861DA0280130831644
:100138000313C6000030C7008312061EA928013029
:1001480083160313C8000030C9008312861EB22824
:10015800013083160313CA000030CB008312061F38
:10016800BB28013083160313CC000030CD00831266
:10017800861FC428013083160313CE000030CF0039
:100188008312071CCD28013083160313D0000030DA
:10019800D1008312871CD628013083160313D2009E
:1001A8000030D3008312071DDF28013083160313A4
:1001B800D4000030D5008312871DE828013083164B
:1001C8000313D6000030D7008312071EF128013030
:1001D80083160313D8000030D9008312871EFA282B
:1001E800013083160313DA000030DB008312071F87
:1001F8000329013083160313DC000030DD0083126D
:10020800871F0C29013083160313DE000030DF003E
:10021800A0308312A5002508F000C2300A128A1106
:1002280037220A128A11710883160313E300700833
:10023800E200620883120313A5002507A03E84008C
:1002480083130008A600840A0008A7002608013EB8
:10025800A80027080318013E003EA90083160313CF
:10026800620883120313AA002A07A03E8400280804
:100278008000840A2908800083160313E401E5013D
:100288006508803AFF0080307F02031D4D290F303A
:10029800640203186F298316031364088312031377
:1002A800A5002507C23E840083138001840A8001CB
:1002B800013083160313E4070318E50A0030E50745
:1002C8006508803AFF0080307F02031D6D290F30DA
:1002D8006402031C4F29831603136208013EC00001
:1002E80063080318013E003EC1004108F1004008C0
:1002F800F0000A128A119A210A128A110A128A1126
:10030800E0220A128A110A128A11E0220A128A11BC
:100318008312031309142E08FF002D088A002C08E5
:1003280084002B0E8300FE0E7E0E0900FF29831227
:100338000313850188010800013083120313850027
:100348008801080002308312031385008801080021
:1003580003308312031385008801080004308312D8
:1003680003138500880108000530831203138500F4
:1003780088010800063083120313850088010800ED
:1003880007308312031385008801080008308312A0
:1003980003138500880108000930831203138500C0
:1003A80088010800831203138501013088000800C2
:1003B80001308312031385000130880008000230E1
:1003C800831203138500013088000800033083126C
:1003D80003138500013088000800043083120313DA
:1003E800850001308800080005308312031385005A
:1003F8000130880008007108003A0319042A362AD7
:100408007008003A03199B29013A0319A029033AF5
:100418000319A629013A0319AC29073A0319B22985
:10042800013A0319B829033A0319BE29013A0319F5
:10043800C4290F3A0319CA29013A0319D029033AE2
:100448000319D629013A0319DC29073A0319E329C4
:10045800013A0319EA29033A0319F129013A031960
:10046800F829362A080083120313A000A301A40167
:10047800A101A201A301A4012408803AFF00803051
:100488007F02031D492A0F30230203189B2A831277
:1004980003132308F20072072007F300730884008F
:1004A80083130008F400840A0008F5007403750437
:1004B800031D882A2108F20072077007F3007308E9
:1004C80084000008F400840A0008F5002308F600F8
:1004D80076077007F700770884000008F800840A98
:1004E8000008F9007908803AFA007508803A7A021B
:1004F800031D802A740878020318882A83120313BC
:100508002408A2002308A100013083120313A307C3
:100518000318A40A0030A4072408803AFF0080309A
:100528007F02031D992A0F302302031C4B2A8312D2
:1005380003132208F1002108F000080083120313B6
:10054800AF01B001B101B201AF01B0013008803A8A
:10055800FF0080307F02031DB32AFF302F020318EB
:10056800080083120313B101B2013208803AFF0078
:1005780080307F02031DC22A643031020318D72A53
:10058800013083120313B1070318B20A0030B2070F
:100598003208803AFF0080307F02031DD52A64307C
:1005A8003102031CC42A013083120313AF07031856
:1005B800B00A0030B007AA2AF001F101F201F301F4
:1005C800F001F1017108803AFF0080307F02031DBD
:1005D800EF2AFF30700203180800F201F3017308D4
:1005E800803AFF0080307F02031DFC2A64307202CB
:1005F80003180F2B0130F2070318F30A0030F30732
:100608007308803AFF0080307F02031D0D2B643091
:100618007202031CFE2A0130F0070318F10A0030A9
:10062800F107E62A831603138501FF308600FF30A1
:1006380087008901880190308B008312031385019C
:100648008B178B120B168B10B301B4018801091498
:0C0658000A128A11A2220A128A112C2B0D
:00000001FF
